:020000040800F2
:10000000A8080020D5000008D50E0008B10B000894
:1000100000000000000000000000000000000000E0
:100020000000000000000000000000001D1D00088E
:1000300000000000000000006D0F000817210008FC
:10004000E7000008E7000008E7000008E7000008F4
:10005000E7000008E7000008E7000008E7000008E4
:10006000E7000008E7000008E7000008E7000008D4
:10007000E7000008E7000008E7000008E7000008C4
:10008000E7000008E7000008E7000008E7000008B4
:10009000E7000008E7000008E7000008E7000008A4
:1000A000E7000008E7000008E7000008E700000894
:1000B000E7000008E7000008E700000845300008F6
:1000C0000348854600F03CF800480047E13100084D
:1000D000A80800200448804704480047FEE7FEE7E0
:1000E000FEE7FEE7FEE7FEE719210008C100000871
:1000F00030B50B46014600202022012409E00D46C0
:10010000D5409D4205D31D469540491B2546954047
:1001100040191546521E002DF1DC30BDD2B201E06F
:100120000270401C491EFBD270470022F6E710B552
:1001300013460A4604461946FFF7F0FF204610BD55
:10014000064C0125064E05E0E36807CC2B430C3C2A
:1001500098471034B442F7D3FFF7B6FFC432000813
:10016000E43200087CB50026002000907EE168465D
:10017000808805072D0F002D7ED1684680881021CC
:100180000840002816D1BF480068BF490840BD4953
:100190000860BE4C207800F0E1FCA061A1692069F4
:1001A00040182061BA48006800214268204618388B
:1001B00090475BE1B54C7834B248006881B2009159
:1001C000684600880121C902084000281AD020781A
:1001D00000F0B2FCA061208B82B2A188204680385A
:1001E00000F0B2FEA74800684004400CA6498031E8
:1001F0000840A4490860A6480068816820469038F5
:10020000884733E1684600880121C9030840002877
:10021000ACD09C4800684004400C9B4980310840A9
:1002200098490860207800F087FCA061A069002848
:1002300009D0238B9AB2A188206900F085FEA169BC
:1002400020694018206192480068002102688F48A8
:10025000183890478B484030006980B2801D8D4A25
:100260008118E2683E2A11D9E268D202100C227B82
:10027000D206D20E002A00E026E001D1421E90B242
:1002800082020123DB031A430A800CE0E268D203F6
:10029000100C227BD207D20F002A01D0421C90B250
:1002A0008206120C0A80774909687B4A1140084689
:1002B0000121090348404900484089000143802248
:1002C0001143704A1160D1E0A8006E4940180068DF
:1002D00081B20091684600880121C90308400028C6
:1002E0005FD0A8006749401800684004400C664988
:1002F00080310840A900634A8918086028206843B3
:10030000624978314418A07A00280BD1207800F097
:1003100013FC0646002E28D0A1883246206900F042
:1003200013FE22E0207800F0D9FB01218903084068
:1003300000280BD0207800F0DBFB0646002E10D002
:10034000E1883246206900F0FFFD0AE0207800F0E5
:10035000E1FB0646002E04D021893246206900F0D8
:10036000F3FD2078002100F049FBA0698019A0610D
:100370002069801920616069002802D0E068B042DD
:1003800007D92178424800680268404818389047E9
:1003900007E0A08A83B221783C481838226900F02F
:1003A000E7F9684600888021084000285ED02820B0
:1003B000684336494418A800324940180068324959
:1003C0000840A9002F4A89180860A07A00280DD19A
:1003D000207800F0C3FBA061A06900282CD0238BFB
:1003E0009AB2A188206902F0C7FE25E0207800F0CB
:1003F00075FB4021084000280DD0207800F078FBE4
:10040000A061A069002813D0238B9AB2E1882069EB
:1004100002F0B2FE0CE0207800F07CFBA061A06945
:10042000002805D0238B9AB22189206902F0A4FE0E
:100430002078012100F0E2FA207800F08FFBA06123
:10044000A1692069401820616069002807D12178DE
:100450000F48006842680D481838904706E0217838
:100460000A4818386369226900F02AFA05484030C2
:10047000406880B201900121C9030840002800D0E3
:1004800075E67CBD005C00400F8F00000801002075
:10049000E4000020006000408FBF000081000A4A95
:1004A000891809681214114000290BD08100064AEE
:1004B00089180968054A1140054A11438200024B18
:1004C000D218116070470000005C00408F8F000060
:1004D00080C0000081000A4A891809684022114042
:1004E00000290BD08100064A89180968054A114085
:1004F000054A11438200024BD21811607047000078
:10050000005C00408F8F0000C080000004498969B2
:100510000122D2031143024A916101218170704787
:10052000405C004070B506460D468020284080287B
:1005300007D16806400E2821484331461831441837
:1005400006E06806400E28214843314690314418A1
:10055000A07A002812D16078002807D02078FFF711
:10056000B9FF2078002101F001FD2DE02078FFF790
:1005700095FF2078002101F0B5FC25E06078002887
:1005800011D12078FFF78AFF2078FFF7A3FF2078AA
:1005900001F024FF2078002101F0A4FC2078002144
:1005A00001F0E4FC10E02078FFF778FF2078FFF7F7
:1005B00091FF207801F0FEFE2078002101F0D6FCAA
:1005C0002078002101F08EFC002070BD70B5064639
:1005D0000D4680202840802807D16806400E28213B
:1005E000484331461831441804E028206843314616
:1005F000903144186078002809D02078FFF76AFF0E
:100600002078302101F0B2FC0020A07009E02078B1
:10061000FFF744FF20780321090301F063FC002069
:10062000A070002070BDFFB581B006460D4617468C
:1006300080202840802809D16806400E28214843A0
:100640003146183144180120607008E06806400EF9
:100650002821484331469031441800206070E760FB
:100660000498E0706806400E20702078002802D1BF
:100670006062E0612062002020616061A061A07082
:10068000E078002806D0012815D0022808D00328D9
:1006900017D10AE020780121490201F089FC10E01D
:1006A0002078002101F084FC0BE02078032149022E
:1006B00001F07EFC05E020780121890201F078FC40
:1006C00000BF00BFA07A002820D1607800280BD09E
:1006D000A188207801F02CFC2078FFF7FBFE207821
:1006E000202101F043FC40E0A188207801F0C0FB0C
:1006F000A28991B2207801F0CDFB2078FFF7CEFEE1
:1007000020780321090301F0EDFB2EE0207801F0B1
:1007100099FB2289E188207801F012FB607800289B
:1007200012D12078FFF7BAFE2078FFF7D3FE2078A9
:1007300001F054FE20780321090301F0D3FB207857
:10074000002101F013FC10E02078FFF7A7FE2078CD
:10075000FFF7C0FE207801F02DFE2078002101F087
:1007600005FC2078002101F0BDFB002005B0F0BDA4
:10077000FFB581B005460E46174600200090700672
:10078000400E282148432946903144182761049897
:1007900060610020A061E1686069884206D9E06874
:1007A000009060690099401A606103E06069009000
:1007B00000206061A07A002805D1009A91B22078CB
:1007C00001F068FB05E0009B9AB26178207801F0A7
:1007D000D3FA20780321090301F084FB002005B03F
:1007E000F0BD000030B502460020117100BF10E0DE
:1007F00003069B0D0B4C1B191B680B4C23400B4C29
:100800002343C4B223430406A40D064D6419236098
:10081000401C0328ECD380230B43024C4034E3609C
:1008200030BD0000005C00408F8F00008080000021
:1008300070B506460D4680202840802807D16806FE
:10084000400E2821484331461831441804E028203E
:1008500068433146903144182078002819D1217816
:100860008900154A89180968144A1140084601216F
:100870000903484010214840C90201438022114326
:10088000227892000C4BD21811600120A070002039
:1008900070BD6078002806D00120A070207810215B
:1008A00001F064FB06E00120A0702078012109031B
:1008B00001F018FB0020EBE7005C0040BFBF000028
:1008C000FFB583B006460D46174600200290680625
:1008D000400E282148433146183144186806400E1E
:1008E00020702761069860610020A061E16860695E
:1008F000884206D9E068029060690299401A6061F6
:1009000003E06069029000206061A07A00280BD1AA
:10091000029B9AB2A188206902F02EFC029A91B241
:10092000207801F015FB1EE000200190029B9AB296
:100930006178207801F020FA207800F0CFF840218B
:100940000840002802D02089019001E0E088019051
:1009500002998AB22069019902F00EFC6178207830
:1009600000F04CF800BF2078302101F0FFFA0020A1
:1009700007B0F0BD10B504460120A0700020207122
:10098000A0600120E06001F0D5F9002001F0D2F96B
:10099000002001F01FFB002001F0C2F9BF2000027F
:1009A00003490860098888B201F0C4F910BD00004D
:1009B000C400002070B505460C46802020408028E9
:1009C00007D16006400E282670432E46183681193E
:1009D00006E06006400E282670432E4690368119A8
:1009E000002A03D1002088728B8004E001208872E5
:1009F000CB80180C0881002070BD000010B50029C4
:100A00000CD182000D4BD21812680D4B1A400D4BC1
:100A10001A438300094C1B191A600DE001290BD100
:100A20008200064BD2181268054B1A40064B1A4337
:100A30008300024C1B191A6010BD0000005C0040CE
:100A40008F8F0000C080000080C00000F0B50A4613
:100A500000210023002400BF3DE001258D402B46EE
:100A600015681D402C469C4234D11579012D02D0C9
:100A70001579022D16D185684F000326BE40B54377
:100A8000856055794E00B540866835438560858818
:100A900001268E40B5438580858896798E40B6B212
:100AA0003543858005684F000326BE40B543056089
:100AB00015794E00B540066835430560C5684F009E
:100AC0000326BE40B543C560D5794E00B540C66823
:100AD0003543C560491C1029BFD3F0BD01468800CD
:100AE000024A8018006880B270470000005C004035
:100AF00001460648006980B2CA008018801C044A7A
:100B0000801800888005800D70470000405C004020
:100B10000060004001460648006980B2CA008018A3
:100B2000801D044A801800888005800D70470000F1
:100B3000405C00400060004001460648006980B209
:100B4000CA008018801D044A801800888005800D26
:100B500070470000405C00400060004001460648CD
:100B6000006980B2CA008018801C044A801800887E
:100B70008005800D70470000405C00400060004030
:100B800070B50948C46A056B466BA419002C0AD0DD
:100B900008220649204600F00DF8042203491031CE
:100BA000284600F007F870BD80F7FF1F1E000020E8
:100BB00000BFFEE730B50B46002100BF12E0040F76
:100BC0000A2C04D2040F30344D005C5503E0040FAE
:100BD00037344D005C55000100254C00641C1D5548
:100BE0004C1CE1B29142EADB30BD000010B5044676
:100BF0000F48007B00280BD10D488068002807D0E3
:100C00000C480078002803D102212046FFF710FE8F
:100C100081212046FFF70CFE06480078022805D106
:100C20001F23034A02212046FFF7A2FD10BD00004A
:100C3000140400208100002010B504462B484068B1
:100C40002B4948602948806888600221204601F0CD
:100C5000C5FD1F2810D125480068264988420BD1C0
:100C60002248407B012807DC2048807B012803DBE9
:100C70001E48807B10280CDD1C49487B2022052162
:100C800000F01AFF02201C4908702046FFF7AEFF53
:100C90002BE01648417B02460F32204600F08AFCCA
:100CA000002803DA2046FFF7A1FF1EE01348007872
:100CB00002281AD011480078012816D00F48007871
:100CC000032812D00E480088002806DD0C48028850
:100CD0000C49204600F0DAF807E0094800880028AF
:100CE00003D10021204600F0B1F810BD140400200B
:100CF000340400205553424381000020800000202E
:100D00007E0000201402002070B505460C460C48F9
:100D10000078022807D181212846FFF789FD0020AD
:100D2000074908700BE080202040802807D1044844
:100D30000078012803D00121284600F087F870BD13
:100D40008100002070B504460D4610480078022846
:100D500004D0032811D0042814D10DE00C48417BA5
:100D600002460F32204600F025FC002803DA01215C
:100D7000204600F06BF806E000BF0021204600F09E
:100D800065F800E000BF00BF70BD000080000020DB
:100D90001404002070B504460D460E480078002863
:100DA00002D0012812D103E02046FFF745FF0EE0F4
:100DB0000948417B02460F32204600F0FBFB002829
:100DC00003DA0121204600F041F800E000BF00BF37
:100DD00070BD000080000020140400200021014AA2
:100DE000117070478000002010B5044600200849AB
:100DF00008700849087008480068016800208847A2
:100E00001F23064A02212046FFF7B2FC10BD000056
:100E100080000020810000207800002014040020C1
:100E200010B50446002006490870012005490870E5
:100E30001F23054A02212046FFF79AFC10BD00003F
:100E400080000020810000201404002070B50546B9
:100E50000C460A480A4908600846047300200949FC
:100E600008700D23064A81212846FFF729FD1F231C
:100E7000054A02212846FFF77BFC70BD55534253BB
:100E800034040020800000201404002070B50646C1
:100E90000D4614460C488068A04202D20A48806879
:100EA00000E0204684B209488068001B074988603A
:100EB0000020087304200649087023462A46812131
:100EC0003046FFF7FDFC70BD140400203404002000
:100ED000800000207047000000218278002A27D07F
:100EE000184A03231B02D21803789B109B00D15889
:100EF00002789207D30EFF229A400B46934319467D
:100F000042789207120E03789B07DB0E9A4011433A
:100F10000C4A03231B02D21803789B109B00D1506C
:100F20000278D306DB0E01229A40064B1A6007E0D6
:100F30000278D306DB0E01229A40024B80331A60FE
:100F40007047000000E100E070B5561C7510064EB9
:100F50008C192B4605E026880680A41C401C401CEA
:100F60005B1E002BF7D170BD006000407047000091
:100F7000002905D0054A52690243044B5A6104E036
:100F8000024A52698243014B5A6170470010024085
:100F9000002905D0054AD2690243044BDA6104E016
:100FA000024AD2698243014BDA6170470010024065
:100FB00010B502460021002300205111002902D162
:100FC0000C4C23680BE0012902D10A4C236A06E08D
:100FD000022902D1074C636A01E0064C636BD1061B
:100FE000C90E01248C401C40002C01D0012000E0DF
:100FF000002010BD0010024001460020054A506844
:10100000F02302469A43104602460A431046014A1C
:1010100050607047001002400021024A9170114652
:10102000887070470010024001460020064A506850
:1010300007231B0202469A43104602460A43104603
:10104000014A50607047000000100240002807D09D
:1010500007490968012212061143054A116006E09A
:1010600003490968012212069143014A1160704741
:1010700000100240074A52687B23DB039A43054B6A
:101080005A601A46526803460B431A43014B5A6092
:10109000704700000010024001460020044AD06A58
:1010A0000009000102460A431046014AD062704717
:1010B0000010024001460020044A50688008800069
:1010C00002460A431046014A506070470010024031
:1010D0000549096B80229143034A11631146096B4C
:1010E00001431163704700000010024030B505460F
:1010F000072D01D03148057030480078030002F018
:1011000051F80805131C222E3B5556542C480068F4
:10111000002805D100F058F806202849087002E0A0
:1011200005202649087046E000F04EF804202349C7
:1011300008700120224908603DE002201F494870E4
:101140000320087037E01D484078401E1B49487056
:1011500008464078002801D1042008702BE0194887
:10116000006884B210200443164804600520134927
:1011700008700A2048701EE010484078401E0F4951
:1011800048700846407800280ED10E48006884B2A6
:1011900010212046884304460A4804600620074977
:1011A000087000200649086005E000BF00BF062067
:1011B0000249087000BF00BF30BD000038000020A9
:1011C0003C000020405C00400649096888B20422C7
:1011D00001469143084603490860BF210902014ABC
:1011E00011607047405C004070B506460C461546DD
:1011F000601907490968884207D92122052130462C
:1012000000F05AFC0020C04370BD0020FCE7000045
:10121000B400002070B505460C466078002804D163
:101220002146284600F0E2F870BD6078012804D11C
:101230002146284600F014F9F6E70449487B2022AD
:10124000052100F039FC0020C043EDE71404002024
:10125000F0B585B007460D46A8780390E87802906F
:1012600028790190012149022548FEF75EFF2548B3
:10127000006801214902884202D22248006801E048
:10128000012040020446002C07D1112204213846D7
:1012900000F012FC601E05B0F0BD1948E3B20090EA
:1012A000019A0299039800F0D5FE0646002E07D059
:1012B00011220421384600F0FFFB0020C043EAE77A
:1012C00023460F4A812110480068FFF7F9FA0F48BA
:1012D000006800190D4908600A480068001B0949A8
:1012E00008600B488068001B094988600548006851
:1012F000002802D10320074908700020CBE7000036
:1013000014020020BC000020C0000020B800002013
:101310003404002080000020F0B585B007460D465B
:10132000A8780390E8780290287901902A4800680C
:1013300001214902884202D22748006801E00120C9
:1013400040020446002C07D103220421384600F055
:10135000B3FB601E05B0F0BD2048E3B20090019AD7
:101360000299039800F0A9FE0646002E07D003223A
:101370000421384600F0A0FB0020C043EAE71848EB
:10138000006800191649086013480068001B1249DC
:10139000086014488068001B124988600E48006885
:1013A000002805D1002110480068FFF74FFD11E02B
:1013B0000948006801214902884202D206480068B3
:1013C00001E00120400283B2044A0221064800687D
:1013D000FFF7CEF90020BDE7BC000020140200207A
:1013E000B800002034040020C000002070B504467E
:1013F0000D461548007800281CD11448007B802138
:101400000840802808D01149487B2022052100F09F
:1014100053FB0020C04370BD0C4880680C49086035
:101420000220094908700B4800680B4909684843C5
:1014300008490860012040020849088029462046E2
:10144000FFF706FFE7E700008000002014040020FB
:10145000BC000020B8000020B00000207E0000206A
:1014600070B504460D4620480078002835D11F4845
:10147000007B80210840802808D11C49487B20221D
:10148000052100F019FB0020C04370BD174880689B
:101490001749086015488068002808D11349487B1F
:1014A0002022052100F008FB0020C043EDE70120C9
:1014B0000D4908700E48006801214902884202D295
:1014C0000B48006801E00120400283B2094A022172
:1014D00009480068FFF74CF904E029462046FFF769
:1014E0001BFFD2E70020D0E780000020140400207A
:1014F000BC00002014020020C000002030B50446CB
:101500000A465078C007C00F002802D00D4B0721B3
:101510000BE00D480068C569242060432B1818793A
:10152000411D1079884200DC11790848018004E0EF
:10153000481E81B2585C064D68540029F8D100203D
:1015400030BD0000AC320008780000207E00002092
:101550001402002010B502460B46082106480180FF
:1015600005E0481E81B20548405C054C60540029E6
:10157000F7D1002010BD00007E000020BB32000823
:101580001402002010B502460B46082106480180CF
:1015900005E0481E81B20548405C054C60540029B6
:1015A000F7D1002010BD00007E000020B3320008FB
:1015B0001402002070B505460E46144636480560F4
:1015C0002078232841D00EDC1A2834D006DC0028ED
:1015D00018D003281BD0122855D11DE01B2820D07D
:1015E0001E2850D122E02F2843D006DC252831D0F8
:1015F000282834D02A2846D136E05A2820D0FF287F
:1016000041D13BE02146304600F07CFA70BD2146D6
:10161000304600F005FAF9E721463046FFF76EFF45
:10162000F4E72146304600F065FAEFE72146304600
:1016300000F060FAEAE721463046FFF7A3FFE5E74E
:1016400021463046FFF786FFE0E72146304600F0AE
:101650009FF9DBE72146304600F050F9D6E72146F6
:10166000304600F0DFF8D1E72146304600F09CFA22
:10167000CCE72146304600F06FFAC7E721463046F6
:10168000FFF7C8FDC2E720220521304600F014FA1A
:101690000020C043BAE70000C0000020F8B50546AE
:1016A0002448006801214902884202D2214800688A
:1016B00001E00120400204461F4801682046FEF771
:1016C00017FD86B21C4801681C480068FEF710FD33
:1016D00000901B480068334607691A492846009A5B
:1016E000B847002807DA11220421284600F0E4F95F
:1016F0000020C043F8BD2346124A812112480068E9
:10170000FFF7DEF80D48006800190C490860094829
:101710000068001B074908600C488068001B0B49E3
:10172000886004480068002802D103200849087036
:101730000020DFE7BC000020B0000020B80000203F
:101740007800002014020020C00000203404002093
:1017500080000020F8B505462B48006801214902A9
:10176000884202D22848006801E001204002044675
:10177000264801682046FEF7BBFC86B22348016874
:1017800023480068FEF7B4FC009022480068334606
:10179000476921492846009AB847002807DA0322FA
:1017A0000421284600F088F90020C043F8BD1848FD
:1017B000006800191649086013480068001B1249A8
:1017C000086016488068001B144988600E4800684D
:1017D000002805D1002112480068FFF737FB11E00F
:1017E0000948006801214902884202D2064800687F
:1017F00001E00120400283B2074A02210848006844
:10180000FEF7B6FF0020D1E7BC000020B0000020AA
:10181000B8000020780000201402002034040020CA
:10182000C000002070B505460C462D480078002801
:101830004DD12C48007B80210840802808D02949C0
:10184000487B2022052100F037F90020C04370BDFD
:1018500025480068816828468847002807D03A2232
:101860000221284600F028F90020C043EFE7A078C5
:101870000006E178090408432179090208436179E7
:1018800008431A490860E0790002217A08431849A0
:1018900008600846008882B2144801682846FFF7AD
:1018A000A3FC002802DA0020C043D0E702200C4944
:1018B00008700E4800680F49096848430B490860E2
:1018C0000B4800680B490968484309490860012032
:1018D0004002094908802846FFF7E0FEB7E700000C
:1018E000800000201404002078000020B8000020B0
:1018F000BC000020B00000207E00002070B504462F
:101900000D461E4800681E4A1E49436820469847F7
:10191000002807D03A220221204600F0CDF800200E
:10192000C04370BD17480068401E000E164908707D
:1019300014480068401E0002000E487011480088DC
:10194000401E0004000E88700E480078401EC870CB
:101950000B480068000E0871094800680002000E7C
:101960004871074800880004000E88710448007818
:10197000C8710820054908800020D2E778000020BF
:10198000B0000020B4000020140200207E000020DF
:101990007CB505460E46002404E000201D4908558C
:1019A000601C84B20C2CF8DB1B48006801AA694655
:1019B000436828469847002807D03A220221284643
:1019C00000F07AF80020C0437CBD08201149C8709F
:1019D0000098401E000E08710098401E0002000E84
:1019E00048710098401E0004000E88710098401E47
:1019F000C8710220087201980002000E4872019816
:101A00000004000E88720198C8720C2003490880F7
:101A10000020D9E714020020780000207E0000207A
:101A200010B50346002204E000201E4CA054501CB8
:101A3000C2B2122AF8DB70201A4C20700C20E07120
:101A400019480078194C2478A04221D01648007813
:101A5000C000174C205C134CA07013480078C000E5
:101A6000134C001940790F4C20730F480078C000C8
:101A70000F4C001900790B4C60730B480078401C28
:101A8000094C207020460078042801D100202070E5
:101A90001220084C20800879122801DC0879208067
:101AA000002010BD14020020AC000020AD0000207A
:101AB000440400207E00002030B50C4B1B78DB0076
:101AC0000B4CE1541302094C2478E400084D6419CE
:101AD0006360064B1B785B1C044C237023461B7809
:101AE000042B01D10023237030BD0000AD00002085
:101AF0004404002002460020014B1880704700007B
:101B00007E00002070B504460D461048806800280D
:101B100008D00E49487B20220521FFF7CDFF002089
:101B2000C04370BD0A480068816820468847002885
:101B300007D03A2202212046FFF7BEFF0020C04313
:101B4000EFE700200349088000BFEAE71404002003
:101B5000780000207E00002070B505460C466078B5
:101B600002210840022807D1242205212846FFF738
:101B7000A3FF0020C04370BD0848008882B2084817
:101B800001682846FFF730FB002802DA0020C04336
:101B9000F1E700200349088000BFECE7BC0000200B
:101BA000B80000207E00002070B505460C46444871
:101BB000007800287ED14348007B8021084080289F
:101BC00008D14049487B20220521FFF775FF0020FE
:101BD000C04370BD3C48006881682846884700289B
:101BE00007D03A2202212846FFF766FF0020C043B3
:101BF000EFE735480068C16828468847002807D0C5
:101C0000272202212846FFF757FF0020C043E0E7C4
:101C1000A0780006E1780904084321790902084305
:101C20006179084329490860E0790002217A084374
:101C3000274908600846008882B22448016828467F
:101C4000FFF7D2FA002802DA0020C043C1E71F489C
:101C500000682049096848431C4908601C4800681E
:101C60001C49096848431A49086016488068096891
:101C7000884208D01349487B20220521FFF71CFF2A
:101C80000020C043A5E701200D49087010480068F6
:101C900001214902884203D20D48006802E009E0B0
:101CA0000120400283B20C4A02210C480068FEF772
:101CB0005FFD03E02846FFF74DFD8AE7002088E737
:101CC000800000201404002078000020B8000020CC
:101CD000BC000020B000002014020020C000002042
:101CE00093B003460120400210601198400A08603A
:101CF000002013B070470020704701460020704755
:101D000001460020704701460020704710B5044688
:101D1000052010BD10B50446052010BD7047000019
:101D200002490140024A116170470000F8FF0000BB
:101D3000405C00400149086070470000405C004082
:101D400030B54B105B000A4C2469A4B2C50064197D
:101D5000084D6419238053105C00054B1B699BB22E
:101D6000C5005B191B1D034D5B191C8030BD0000B5
:101D7000405C00400060004070B50346002921D15E
:101D80002E48006980B2DD004019801C2C4D44199A
:101D90003E2A0CDD5011D506ED0E002D01D1451E59
:101DA000A8B285020126F6033543258009E05010CC
:101DB000D507ED0F002D01D0451CA8B285062D0CCE
:101DC00025800AE0012908D11C48006980B2DC00A6
:101DD0000019801C1A4C00190280002921D11748D3
:101DE000006980B2DD004019801D154D44193E2A5E
:101DF0000CDD5011D506ED0E002D01D1451EA8B207
:101E000085020126F6033543258009E05010D507E9
:101E1000ED0F002D01D0451CA8B285062D0C2580A4
:101E20000AE0012908D10548006980B2DC000019E8
:101E3000801D034C0019028070BD0000405C004012
:101E4000006000408100074A891809689215114313
:101E5000054A1140054A11438200024BD218116015
:101E600070470000005C00408F8F00008080000001
:101E700010B54A105300054A126992B2C4001219F3
:101E8000121D034C1219138010BD0000405C00406D
:101E90000060004030B502461048006980B2D400AE
:101EA0000019801D0E4C03193E290CDD4811CC068B
:101EB000E40E002C01D1441EA0B284020125ED03E2
:101EC0002C431C8009E04810CC07E40F002C01D003
:101ED000441CA0B28406240C1C8030BD405C004031
:101EE0000060004030B583000F4C1B191B680F4C7D
:101EF00023401A4601231B030B40002B02D0012371
:101F00001B035A4001235B030B40002B02D001232B
:101F10005B035A400123DB031343802423438400E3
:101F2000014D6419236030BD005C00408FBF00008C
:101F300010B54A105200044B1B699BB2C4001B1918
:101F4000024C1B191A8010BD405C0040006000402C
:101F5000044A126992B2C300D218921C024BD218E2
:101F600011807047405C00400060004030B5830045
:101F70000D4C1B191B680D4C23401A4610230B40B7
:101F8000002B01D010235A4020230B40002B01D0FE
:101F900020235A400123DB0313438024234384007E
:101FA000014D6419236030BD005C0040BF8F00000C
:101FB00010B58200054BD2181268054B1A400A432F
:101FC0008300024C1B191A6010BD0000005C004029
:101FD0008F8900000149486070470000405C004064
:101FE00011201249086012484068114948600846AB
:101FF000406848600846406B0121090408430C49C9
:10200000486300BF0A48406B01214904084000288A
:10201000F8D00748406880088000054948600846B5
:10202000406803210843024948607047002002408D
:10203000001002400649096888B208210843044993
:102040000860096888B204210843014908607047A4
:10205000405C0040FFB581B00E461D460A9F00F06F
:1020600031F900900098032802D1FF2005B0F0BD9F
:10207000019800F067F900900098002801D0FF2037
:10208000F4E7304600F05EF9039800F05BF928466B
:1020900000F058F9002405E0002000F0B5F83855AC
:1020A000601CC4B2681EA042F6DC012000F0ACF84F
:1020B000385500F022F90020D8E7FFB581B00E4670
:1020C00017461D4600F0FEF800900098032802D144
:1020D000FF2005B0F0BD019800F034F900900098A1
:1020E000002801D0FF20F4E7304600F02BF93846F5
:1020F00000F028F9284600F025F9002405E00A99A7
:10210000085D00F01FF9601CC4B2AC42F7DB00F0C0
:10211000F4F80020DDE7704710B51B480068012186
:10212000084319490860084640681849084016499C
:102130004860084600681649084013490860084688
:1021400000680121890488430F49086008464068F7
:102150007F21C90388430C4948600846C06A0009CA
:102160000001C8620846006BFF21543188430649CC
:1021700008630846406B074908400349486300204C
:102180008860FFF72DFF10BD001002400CB8FF80E3
:10219000FFFFF6FEFEFFFEFF1CB501214804FEF71F
:1021A000E7FE01216846017100218171C17103219F
:1021B00041710120009069460920C006FEF746FCE7
:1021C00001216846017100218171C17103214171B2
:1021D0000220009069460920C006FEF737FC00F097
:1021E0004BF800F037F81CBD10B50022142005E0B4
:1021F000002101E01218491C0A29FBD30346401EA6
:10220000002BF5D1024610BD70B50646012000F046
:1022100038F800F01FF8FFF7E7FF0024002511E071
:102220006006040E00F047F8002801D001200443A6
:1022300000F016F8FFF7D8FF00F00CF8FFF7D4FF16
:10224000681CC5B2082DEBDB304600F066F820466E
:1022500070BD00000120014908817047200000483E
:1022600001200921C9068861704700000220014948
:10227000088170472000004802200921C9068861B2
:1022800070471CB50446002C03D101206946087133
:1022900004E0012C02D10020694608710021684643
:1022A000C171032141710220009069460920C006D6
:1022B000FEF7CCFB1CBD0920C006008A02210840A5
:1022C0004008704710B5FFF7D7FFFFF7C9FFFFF7CA
:1022D0008BFFFFF7F0FF002801D1022010BDFFF7B0
:1022E000C5FFFFF781FFFFF7B5FFFFF7E4FF002809
:1022F00001D00320F2E70020F0E710B5FFF7AAFFB6
:10230000FFF772FFFFF7B2FFFFF76EFFFFF7A8FFBF
:10231000FFF76AFFFFF7B0FF10BD10B504460020BD
:10232000FFF7AFFF002C02D0FFF7A6FF01E0FFF799
:102330009DFFFFF795FFFFF757FFFFF78BFFFFF7B5
:1023400053FF10BD70B50446FFF784FFFFF78EFF03
:10235000002514E080202040002802D0FFF78CFFE9
:1023600001E0FFF783FF6006040EFFF73DFFFFF774
:1023700077FFFFF739FFFFF76DFF681CC5B2082D27
:10238000E8DB0120FFF77DFFFFF72EFFFFF768FF77
:10239000FFF72AFFFFF78FFF0646FFF725FFFFF73E
:1023A00065FFFFF721FF0020FFF76BFFFFF71CFF22
:1023B000304670BD8100064A89180968054A1140F7
:1023C000054A11438200024BD21811607047000089
:1023D000005C00408F8F000080C000008100064A32
:1023E00089180968054A1140054A11438200024BC9
:1023F000D218116070470000005C00408F8F000011
:10240000C080000070B504460D46FF200930005919
:102410002946426820469047002070BD70B50446AA
:102420000D46A078022802D0032811D100E000BF99
:10243000688801280BD10020A060FF2009300059D6
:102440002946826820469047204600F048F804E07C
:102450002946204600F01DF800BF00BF70BDF8B54A
:1024600006460C46154600272B46224600213046DC
:10247000FEF77EF93846F8BDF8B506460C46154617
:1024800000272B46224600213046FEF719FA38462F
:10249000F8BD70B504460D4600212046FEF7C8F988
:1024A00070BD70B5044600250520607000231A46F3
:1024B00019462046FEF75CF9284670BDF8B504467B
:1024C0000E4615460027A5636563022060702B4603
:1024D000324600212046FEF7F3F93846F8BD70B5C4
:1024E000044600250420607000231A461946204641
:1024F000FEF7E6F9284670BD70B505460E46002E7B
:102500004CD12C4618346878022837D1E168E0694C
:1025100088420AD9E168E069401AE061A08B82B282
:1025200028462169FFF7A8FF48E0E168206AFDF727
:10253000DFFD00290FD1E168206A88420BD3616A70
:10254000206A884207D2002211462846FFF794FFEE
:102550000020606232E0FF2009304059C068002846
:1025600008D0A878032805D1FF2009304059C16858
:10257000284688472846FFF794FF1FE0687804281C
:102580001CD10F480068002818D00D480178284653
:10259000FEF728F900200A4908600FE0FF20093003
:1025A00040594069002809D0A878032806D1FF20A7
:1025B000093040593146426928469047002070BD95
:1025C000E800002070B505460E46002E2CD12C46A2
:1025D00090346878032837D1E168E069884210D9DF
:1025E000E168E069401AE061E368E069984201D27D
:1025F000E06900E0E06882B228462169FFF72FFF1A
:1026000022E0FF20093040590069002808D0A8784E
:10261000032805D1FF200930405901692846884721
:102620002846FFF75CFF0FE0FF2009304059806922
:10263000002809D0A878032806D1FF200930405986
:102640003146826928469047002070BD014600202F
:10265000704738B504460D4600200090E8880128F0
:1026600004D029462046FFF714FF17E0A07802287F
:1026700002D003280CD105E0012269462046FFF76D
:102680001DFF0AE0012221462046FFF717FF04E064
:1026900029462046FFF7FDFE00BF00BF38BDF8B554
:1026A00004460E4670880012030000F07BFD086EA1
:1026B00005131F6E6E64696E207BFF21113109596D
:1026C0000A68694690470546F088402801D10820ED
:1026D00000905FE0207BFF21093109590A6A6946B1
:1026E00090470546FF2115310D5153E0B0780300A6
:1026F00000F058FD06040D161F28313A207BFF21FB
:10270000113109594A6869469047054631E0207BF6
:10271000FF21113109598A6869469047054628E02A
:10272000207BFF2111310959CA6869469047054647
:102730001FE0207BFF21113109590A696946904742
:10274000054616E0207BFF21113109594A69694687
:10275000904705460DE0207BFF21113109598A6918
:1027600069469047054604E031462046FFF791FE52
:10277000F8BD00BF0EE031462046FFF78AFEF7E7BE
:1027800031462046FFF785FEF2E731462046FFF747
:1027900080FEEDE700BF68460088002812D0F08870
:1027A00000280FD0F08869460988884202DD684613
:1027B000008800E0F088009069460A882946204693
:1027C000FFF77CFE00BFD3E70146002002E0421C79
:1027D000D0B2491C0A78002AF9D170470246282055
:1027E000484313469033C018008B80B2704738B509
:1027F00004460D4600200090A078022802D003284D
:1028000010D100E000BF01200090A068002803D094
:102810000221009808430090022269462046FFF7F3
:102820004DFE04E029462046FFF733FE00BF00BFFF
:1028300038BDF8B504460D4617460026002C1ED0BC
:102840002046FFF7C1FF4000801C38803A783046B0
:10285000711CCEB22A5403223046711CCEB22A54C7
:102860000AE022783046711CCEB22A54641C002241
:102870003046711CCEB22A5420780028F1D1F8BD20
:10288000F8B504460D4616461F46204600F09EFB4E
:102890002046FFF7DBFEFF2009300651001D0751DF
:1028A000001D0551FEF76CF92046FEF763F8FF2185
:1028B0000D31095908688047204600F07BFB20460F
:1028C000FDF724FEF8BD70B504460D4629462046A6
:1028D000FEF738FA002070BD70B504460D46294653
:1028E0002046FEF757FA002070BD70B504460D462D
:1028F00081212046FDF716FE02212046FDF712FE3B
:102900002046FEF76BFA002070BD00000246202032
:1029100008800148704700008C32000870B50446FA
:102920000D469823002281212046FEF743F8D82344
:10293000002202212046FEF73DF802234022812199
:102940002046FDF770FE0223402219462046FDF77F
:102950006AFE2046FEF748FA002070BD70B50546B5
:102960000C4620786021084000284CD0202863D1F4
:102970006078FE2802D0FF283DD126E0608800283C
:102980001CD1E088012819D12078802108408028B6
:1029900014D12B490968886980472A49087008467C
:1029A0000078002804DD01222846FFF787FD0BE0B0
:1029B00021462846FFF76DFD022070BD21462846BE
:1029C000FFF767FD0220F8E71BE0608800280BD1C5
:1029D000E088002808D1207880210840802803D092
:1029E0002846FEF71DFA05E021462846FFF751FD6F
:1029F0000220E2E705E021462846FFF74AFD0220D3
:102A0000DBE700BF19E0607801280ED00A2802D069
:102A10000B280FD105E001220B492846FFF74EFD98
:102A200008E0A0780849087004E021792846FEF7FC
:102A30006BF900BF00BF00E000BF00BF0020BCE793
:102A400078000020A8000020A9000020027C0A7065
:102A5000427C4A70837CC27C12029A184A80037DB1
:102A6000427D12029A188A80837DC27D12029A18D2
:102A7000CA80CB88C36301224270704710B50446F8
:102A80001823002211462046FDF794FF5823002208
:102A900080212046FDF78EFF002340221946204664
:102AA000FDF7C1FD0023402280212046FDF7BBFD3C
:102AB0000120A070207BFF220D32125951688847F7
:102AC000002010BD10B50446FF210D3109590869D9
:102AD0008047E078A070002010BD10B50446FF20AC
:102AE00009300059C069002805D0FF20093000597D
:102AF000C16920468847002010BD000070B504461B
:102B00000D46A88800281BD1E888002818D1A8788D
:102B10004606760EA078032804D129462046FFF702
:102B2000B8FC11E02671094806602046FFF7D7FC83
:102B3000002E02D00220A07006E00120A07003E069
:102B400029462046FFF7A5FC70BD0000E8000020E4
:102B500070B504460D46FF20093000592946026829
:102B600020469047FF210D31095988688047002091
:102B700070BD000070B504460D46A8782C49087059
:102B800008460078012804DD29462046FFF781FC2D
:102B90004CE0A078022802D0032841D115E0244857
:102BA000007800280DD02248007820700320A07003
:102BB0001F4801782046FFF7CBFF2046FFF78FFC28
:102BC00002E02046FFF78BFC2FE019480078002830
:102BD0000DD10220A07016480078207014480178AA
:102BE0002046FFF70FFC2046FFF779FC17E020781E
:102BF0000F49097888420FD021782046FFF702FC60
:102C00000B48007820700A4801782046FFF7A0FFA3
:102C10002046FFF764FC02E02046FFF760FC04E07A
:102C200029462046FFF735FC00BF00BF70BD0000FD
:102C3000EC00002070B504460D46688801280AD1D2
:102C4000A060FF200930005929468268204690473D
:102C50002046FFF744FC70BD1CB50446694620467B
:102C6000FFF7F4FE68460078C006C00E002804D0C6
:102C7000012807D002280FD109E06946204600F05C
:102C800017F812E06946204600F0F7F80DE06946B3
:102C9000204600F046F808E06846007880221040A0
:102CA00001462046FDF7C4FD00BF00BF00201CBD4B
:102CB00070B505460C4600266078030000F072FAF5
:102CC0000A1A24291F290B062915102921462846EE
:102CD000FFF7E5FC22E021462846FFF70FFF1DE045
:102CE00021462846FFF746FF18E021462846FFF711
:102CF000B0FC13E021462846FFF779FD0EE021469F
:102D00002846FFF797FF09E021462846FFF786FB94
:102D100004E021462846FFF7BCFB00BF00BF304659
:102D200070BDF8B505460E460020009000273479A6
:102D3000707800285BD001282DD0032877D1A8789F
:102D4000022802D003281FD108E0002C05D0802CD7
:102D500003D021462846FDF76BFD1AE07088002855
:102D600007D1002C05D0802C03D021462846FDF742
:102D70005FFDFF2009304059314682682846904760
:102D80002846FFF7ACFB04E031462846FFF781FBFD
:102D900000BF00BF6EE0A878022802D003281FD130
:102DA00008E0002C05D0802C03D021462846FDF7F2
:102DB0003FFD1AE07088002807D1002C05D0802C38
:102DC00003D021462846FDF701FCFF200930405979
:102DD00031468268284690472846FFF780FB04E08A
:102DE00031462846FFF755FB00BF00BF42E0A878F8
:102DF000022802D0032835D108E0002C05D0802C11
:102E000003D021462846FDF713FD30E08020204006
:102E1000802810D16006400E2821484329461831E9
:102E200040188078002803D00120009014E020E0B2
:102E30000020009010E08020204000280CD12820A5
:102E400060432946903140188078002802D0012044
:102E5000009001E000200090022269462846FFF71A
:102E60002DFB04E031462846FFF713FB00BF00BFEF
:102E700000E000BF00BF3846F8BD70B504460D46FF
:102E80000026A078032818D12879012810DCFF201B
:102E90000930005929468268204690470646E8884E
:102EA000002809D1002E07D12046FFF718FB03E0C8
:102EB00029462046FFF7EDFA04E029462046FFF7B1
:102EC000E8FA00BF00BF304670BD10B50446A078D8
:102ED000E0700420A070FF210D310959C8688047B7
:102EE000002010BD70B505460C462246024903A0DD
:102EF000FFF79FFC004870BD640400204D53432041
:102F0000436F6E666967000070470000024612203A
:102F10000880014870470000483200087047704739
:102F20007047704770B505460C462246024903A01B
:102F3000FFF77FFC004870BD640400204D53432020
:102F4000496E746572666163650000000246042084
:102F500008800148704700006432000870B50546DB
:102F60000C462246024903A0FFF763FC004870BDEF
:102F70006404002068616E766F6E000070B50546CF
:102F80000C462246024903A0FFF753FC004870BDDF
:102F9000640400206661636549642063616D657245
:102FA0006100000002461A200880014870470000B6
:102FB0001C00002038B504461F216846017000211E
:102FC000417001218170FDF787FF38BD10B50446BF
:102FD000002103204004FDF7CBFF0121C805FDF7C8
:102FE000D7FF0120FEF718F800BF1120FDF7E0FF22
:102FF0000028FAD00020FEF74FF80121090508113A
:10300000FEF738F80120FEF721F800BF1920FDF780
:10301000CFFF0028FAD00220FEF74CF800BF084886
:1030200040680C2108400828F9D10020FDF7E4FF92
:103030000020FDF7F9FF8020FEF74AF810BD0000E0
:103040000010024010B500F001F810BD08B50021D5
:1030500000913F48406881B2009168460088012194
:10306000C90308403B4909680840002801D0FDF722
:1030700079F86846008801218902084035490968C5
:10308000084000280BD03448314948603348006874
:1030900001693348884700213148FDF7A3FB6846A2
:1030A00000880121490308402A490968084000288E
:1030B00002D02C482649486068460088012109034F
:1030C000084024490968084000280AD026482049B9
:1030D0004860224800688169214888470020FEF73F
:1030E00005F8684600880121C902084019490968A5
:1030F0000840002809D01D48154948601748006855
:10310000416917488847FEF795FF68460088012106
:10311000490208400F4909680840002807D01448B0
:103120000B4948600D480068C1680D4888476846EB
:103130000088FF210131084006490968084000283D
:1031400005D00C48024948600720FDF7CFFF08BDB5
:10315000405C0040C4000020FFFB0000E4000020B1
:10316000F0000020FFDF0000FFEF0000FFF700008D
:10317000FFFD0000FFFE0000F8B5571C7F10009710
:10318000074FCD19009B08E00478401C07783E02E9
:1031900026432E80AD1C401C5B1E002BF4D1F8BDD5
:1031A0000060004030B47446641E2578641CAB4255
:1031B00004D3635D5B00E31830BC18471D46F8E795
:1031C00002E008C8121F08C1002AFAD170477047F0
:1031D000002001E001C1121F002AFBD1704700004E
:1031E000124880690121084310498861104800682D
:1031F000102108430E4908600E4B0F4A0F49104832
:10320000FFF73EFBFEF7C8FF0FE00920C006058A66
:10321000082428462040002803D14020094908817D
:1032200003E040200921C9068861EEE70010024052
:103230000000014040000020840000200000002029
:10324000F0000020200000481201000200000040B1
:10325000830420570002010203010A060002000055
:103260000040010004030904000002021F000000E6
:1032700048414E564F4E2020466163654944202008
:1032800043616D6572612020312E303009022000CB
:10329000010104C0320904000002080650050705B8
:1032A0008102400000070502024000000000000308
:1032B0000080830000000000000000000600000005
:1032C00000000000E432000800000020F0000000D0
:1032D000C0310008D4330008F0000020B807000017
:1032E000D03100080D2F00084D2F00085D2F000879
:1032F0007D2F0008A52F0008E52E0008252F0008C7
:103300001A030000000000000000000000000000A0
:1033100000000000000000000000000000000000AD
:1033200000000000232F00081D2F0008092F0008AF
:10333000212F00081F2F000800000000FB1C0008C0
:10334000E11C0008011D0008071D00080D1D0008F4
:10335000151D0008F71C00086832000858000020FE
:1033600000000000000000001D290008EB280008F4
:103370005D2900080000000000000000C7280008C8
:10338000D9280008000000000D29000800000000F6
:10339000000000000000000000000000000000002D
:1033A000000000000000000000000000C52500082B
:1033B000F9240008592C0008DB2A00087D2A00089F
:1033C000CB2E0008C52A0008C8000020000000001D
:0433D00000000000F9
:04000005080000C12E
:00000001FF
